:100000000C945C000C946E000C946E000C946E00CA
:100010000C946E000C946E000C946E000C946E00A8
:100020000C946E000C946E000C946E000C946E0098
:100030000C946E000C946E000C946E000C946E0088
:100040000C9401010C946E000C946E000C946E00E4
:100050000C946E000C946E000C946E000C946E0068
:100060000C946E000C946E00000000002400270029
:100070002A0000000000250028002B0004040404CE
:100080000404040402020202020203030303030342
:10009000010204081020408001020408102001021F
:1000A00004081020000000080002010000030407FB
:1000B000000000000000000011241FBECFEFD8E0B8
:1000C000DEBFCDBF21E0A0E0B1E001C01D92A930AC
:1000D000B207E1F70E944B010C94D4010C9400008C
:1000E000CF93DF9390E0DC01A057BF4FFD017491E7
:1000F0009C0124583F4FF9014491442399F050E06A
:10010000440F551FFA01E859FF4FC591D491FA01E8
:10011000EE58FF4F459154915FB7F8944881472BB3
:1001200048835FBFFC01EC55FF4F8491FD01A49112
:10013000F9012491222309F43CC0882339F183304A
:1001400091F038F48130A9F0823001F584B58F7DCB
:1001500012C0873091F08830A1F08430B9F48091DA
:1001600080008F7D03C0809180008F778093800016
:100170000DC084B58F7784BD09C08091B0008F77A2
:1001800003C08091B0008F7D8093B000E22FF0E03B
:10019000EE0FFF1FEE58FF4FC591D4919FB7F89413
:1001A0008881611103C0A095A82301C0A82BA88352
:1001B0009FBFDF91CF9108953FB7F89480910501DB
:1001C00090910601A0910701B091080126B5A89B66
:1001D00005C02F3F19F00196A11DB11D3FBFBA2FD9
:1001E000A92F982F8827820F911DA11DB11DBC0139
:1001F000CD0142E0660F771F881F991F4A95D1F7FE
:1002000008951F920F920FB60F9211242F933F93D0
:100210008F939F93AF93BF938091010190910201BF
:10022000A0910301B09104013091000123E0230F5C
:100230002D3720F40196A11DB11D05C026E8230F1E
:100240000296A11DB11D209300018093010190939E
:100250000201A0930301B0930401809105019091E4
:100260000601A0910701B09108010196A11DB11DE1
:100270008093050190930601A0930701B0930801B4
:10028000BF91AF919F918F913F912F910F900FBE92
:100290000F901F901895789484B5826084BD84B5C2
:1002A000816084BD85B5826085BD85B5816085BD71
:1002B00080916E00816080936E0010928100809129
:1002C00081008260809381008091810081608093B1
:1002D0008100809180008160809380008091B100D6
:1002E00084608093B1008091B00081608093B00001
:1002F00080917A00846080937A0080917A00826095
:1003000080937A0080917A00816080937A00809156
:100310007A00806880937A001092C10061E085E0E5
:100320000E94700060E086E00E94700061E089E059
:100330000E94700060E08AE00E9470000E94DC0071
:100340004B015C0188EBC82E8BE0D82EE12CF12C00
:100350000E94DC00DC01CB0188199909AA09BB09BC
:10036000883E9340A105B10598F321E0C21AD10857
:10037000E108F10888EE880E83E0981EA11CB11CEC
:10038000C114D104E104F10419F760E085E00E9492
:10039000700060E089E00E947000C0E0D0E020972B
:0C03A000F1F30E940000FBCFF894FFCFA7
:00000001FF
